{
  "_format": "hh-sol-artifact-1",
  "contractName": "MemeNFT",
  "sourceName": "contracts/MemeNFT.sol",
  "abi": [
    {
      "inputs": [],
      "stateMutability": "nonpayable",
      "type": "constructor"
    },
    {
      "anonymous": false,
      "inputs": [
        {
          "indexed": true,
          "internalType": "address",
          "name": "owner",
          "type": "address"
        },
        {
          "indexed": true,
          "internalType": "address",
          "name": "approved",
          "type": "address"
        },
        {
          "indexed": true,
          "internalType": "uint256",
          "name": "tokenId",
          "type": "uint256"
        }
      ],
      "name": "Approval",
      "type": "event"
    },
    {
      "anonymous": false,
      "inputs": [
        {
          "indexed": true,
          "internalType": "address",
          "name": "owner",
          "type": "address"
        },
        {
          "indexed": true,
          "internalType": "address",
          "name": "operator",
          "type": "address"
        },
        {
          "indexed": false,
          "internalType": "bool",
          "name": "approved",
          "type": "bool"
        }
      ],
      "name": "ApprovalForAll",
      "type": "event"
    },
    {
      "anonymous": false,
      "inputs": [
        {
          "indexed": true,
          "internalType": "address",
          "name": "from",
          "type": "address"
        },
        {
          "indexed": true,
          "internalType": "address",
          "name": "to",
          "type": "address"
        },
        {
          "indexed": true,
          "internalType": "uint256",
          "name": "tokenId",
          "type": "uint256"
        }
      ],
      "name": "Transfer",
      "type": "event"
    },
    {
      "anonymous": false,
      "inputs": [
        {
          "indexed": true,
          "internalType": "address",
          "name": "voter",
          "type": "address"
        },
        {
          "indexed": true,
          "internalType": "uint256",
          "name": "tokenId",
          "type": "uint256"
        }
      ],
      "name": "VoteDown",
      "type": "event"
    },
    {
      "anonymous": false,
      "inputs": [
        {
          "indexed": true,
          "internalType": "address",
          "name": "voter",
          "type": "address"
        },
        {
          "indexed": true,
          "internalType": "uint256",
          "name": "tokenId",
          "type": "uint256"
        }
      ],
      "name": "VoteUp",
      "type": "event"
    },
    {
      "inputs": [
        {
          "internalType": "address",
          "name": "to",
          "type": "address"
        },
        {
          "internalType": "uint256",
          "name": "tokenId",
          "type": "uint256"
        }
      ],
      "name": "approve",
      "outputs": [],
      "stateMutability": "nonpayable",
      "type": "function"
    },
    {
      "inputs": [
        {
          "internalType": "address",
          "name": "owner",
          "type": "address"
        }
      ],
      "name": "balanceOf",
      "outputs": [
        {
          "internalType": "uint256",
          "name": "",
          "type": "uint256"
        }
      ],
      "stateMutability": "view",
      "type": "function"
    },
    {
      "inputs": [
        {
          "internalType": "address",
          "name": "_voter",
          "type": "address"
        },
        {
          "internalType": "uint256",
          "name": "_tokenId",
          "type": "uint256"
        }
      ],
      "name": "getAddressTokenIdVote",
      "outputs": [
        {
          "internalType": "enum MemeNFT.Vote",
          "name": "",
          "type": "uint8"
        }
      ],
      "stateMutability": "view",
      "type": "function"
    },
    {
      "inputs": [
        {
          "internalType": "uint256",
          "name": "tokenId",
          "type": "uint256"
        }
      ],
      "name": "getApproved",
      "outputs": [
        {
          "internalType": "address",
          "name": "",
          "type": "address"
        }
      ],
      "stateMutability": "view",
      "type": "function"
    },
    {
      "inputs": [
        {
          "internalType": "address",
          "name": "owner",
          "type": "address"
        },
        {
          "internalType": "address",
          "name": "operator",
          "type": "address"
        }
      ],
      "name": "isApprovedForAll",
      "outputs": [
        {
          "internalType": "bool",
          "name": "",
          "type": "bool"
        }
      ],
      "stateMutability": "view",
      "type": "function"
    },
    {
      "inputs": [
        {
          "internalType": "string",
          "name": "tokenURI",
          "type": "string"
        }
      ],
      "name": "mint",
      "outputs": [
        {
          "internalType": "uint256",
          "name": "",
          "type": "uint256"
        }
      ],
      "stateMutability": "nonpayable",
      "type": "function"
    },
    {
      "inputs": [],
      "name": "name",
      "outputs": [
        {
          "internalType": "string",
          "name": "",
          "type": "string"
        }
      ],
      "stateMutability": "view",
      "type": "function"
    },
    {
      "inputs": [
        {
          "internalType": "uint256",
          "name": "tokenId",
          "type": "uint256"
        }
      ],
      "name": "ownerOf",
      "outputs": [
        {
          "internalType": "address",
          "name": "",
          "type": "address"
        }
      ],
      "stateMutability": "view",
      "type": "function"
    },
    {
      "inputs": [
        {
          "internalType": "address",
          "name": "from",
          "type": "address"
        },
        {
          "internalType": "address",
          "name": "to",
          "type": "address"
        },
        {
          "internalType": "uint256",
          "name": "tokenId",
          "type": "uint256"
        }
      ],
      "name": "safeTransferFrom",
      "outputs": [],
      "stateMutability": "nonpayable",
      "type": "function"
    },
    {
      "inputs": [
        {
          "internalType": "address",
          "name": "from",
          "type": "address"
        },
        {
          "internalType": "address",
          "name": "to",
          "type": "address"
        },
        {
          "internalType": "uint256",
          "name": "tokenId",
          "type": "uint256"
        },
        {
          "internalType": "bytes",
          "name": "_data",
          "type": "bytes"
        }
      ],
      "name": "safeTransferFrom",
      "outputs": [],
      "stateMutability": "nonpayable",
      "type": "function"
    },
    {
      "inputs": [
        {
          "internalType": "address",
          "name": "operator",
          "type": "address"
        },
        {
          "internalType": "bool",
          "name": "approved",
          "type": "bool"
        }
      ],
      "name": "setApprovalForAll",
      "outputs": [],
      "stateMutability": "nonpayable",
      "type": "function"
    },
    {
      "inputs": [
        {
          "internalType": "bytes4",
          "name": "interfaceId",
          "type": "bytes4"
        }
      ],
      "name": "supportsInterface",
      "outputs": [
        {
          "internalType": "bool",
          "name": "",
          "type": "bool"
        }
      ],
      "stateMutability": "view",
      "type": "function"
    },
    {
      "inputs": [],
      "name": "symbol",
      "outputs": [
        {
          "internalType": "string",
          "name": "",
          "type": "string"
        }
      ],
      "stateMutability": "view",
      "type": "function"
    },
    {
      "inputs": [
        {
          "internalType": "uint256",
          "name": "tokenId",
          "type": "uint256"
        }
      ],
      "name": "tokenURI",
      "outputs": [
        {
          "internalType": "string",
          "name": "",
          "type": "string"
        }
      ],
      "stateMutability": "view",
      "type": "function"
    },
    {
      "inputs": [
        {
          "internalType": "address",
          "name": "from",
          "type": "address"
        },
        {
          "internalType": "address",
          "name": "to",
          "type": "address"
        },
        {
          "internalType": "uint256",
          "name": "tokenId",
          "type": "uint256"
        }
      ],
      "name": "transferFrom",
      "outputs": [],
      "stateMutability": "nonpayable",
      "type": "function"
    },
    {
      "inputs": [
        {
          "internalType": "uint256",
          "name": "_tokenId",
          "type": "uint256"
        }
      ],
      "name": "voteDown",
      "outputs": [],
      "stateMutability": "nonpayable",
      "type": "function"
    },
    {
      "inputs": [
        {
          "internalType": "uint256",
          "name": "_tokenId",
          "type": "uint256"
        }
      ],
      "name": "voteUp",
      "outputs": [],
      "stateMutability": "nonpayable",
      "type": "function"
    }
  ],
  "bytecode": "0x60806040523480156200001157600080fd5b506040518060400160405280600781526020017f4d656d654e4654000000000000000000000000000000000000000000000000008152506040518060400160405280600481526020017f4d4e465400000000000000000000000000000000000000000000000000000000815250816000908051906020019062000096929190620000b8565b508060019080519060200190620000af929190620000b8565b505050620001cd565b828054620000c69062000197565b90600052602060002090601f016020900481019282620000ea576000855562000136565b82601f106200010557805160ff191683800117855562000136565b8280016001018555821562000136579182015b828111156200013557825182559160200191906001019062000118565b5b50905062000145919062000149565b5090565b5b80821115620001645760008160009055506001016200014a565b5090565b7f4e487b7100000000000000000000000000000000000000000000000000000000600052602260045260246000fd5b60006002820490506001821680620001b057607f821691505b60208210811415620001c757620001c662000168565b5b50919050565b612ec080620001dd6000396000f3fe608060405234801561001057600080fd5b506004361061010b5760003560e01c80638d9d1781116100a2578063c87b56dd11610071578063c87b56dd146102c8578063d4ebc5ff146102f8578063d85d3d2714610314578063e985e9c514610344578063eda72b2e146103745761010b565b80638d9d17811461024257806395d89b4114610272578063a22cb46514610290578063b88d4fde146102ac5761010b565b806323b872dd116100de57806323b872dd146101aa57806342842e0e146101c65780636352211e146101e257806370a08231146102125761010b565b806301ffc9a71461011057806306fdde0314610140578063081812fc1461015e578063095ea7b31461018e575b600080fd5b61012a60048036038101906101259190611ba3565b610390565b6040516101379190611beb565b60405180910390f35b610148610472565b6040516101559190611c9f565b60405180910390f35b61017860048036038101906101739190611cf7565b610504565b6040516101859190611d65565b60405180910390f35b6101a860048036038101906101a39190611dac565b610589565b005b6101c460048036038101906101bf9190611dec565b6106a1565b005b6101e060048036038101906101db9190611dec565b610701565b005b6101fc60048036038101906101f79190611cf7565b610721565b6040516102099190611d65565b60405180910390f35b61022c60048036038101906102279190611e3f565b6107d3565b6040516102399190611e7b565b60405180910390f35b61025c60048036038101906102579190611dac565b61088b565b6040516102699190611f0d565b60405180910390f35b61027a6108f3565b6040516102879190611c9f565b60405180910390f35b6102aa60048036038101906102a59190611f54565b610985565b005b6102c660048036038101906102c191906120c9565b61099b565b005b6102e260048036038101906102dd9190611cf7565b6109fd565b6040516102ef9190611c9f565b60405180910390f35b610312600480360381019061030d9190611cf7565b610b4f565b005b61032e600480360381019061032991906121ed565b610c0f565b60405161033b9190611e7b565b60405180910390f35b61035e60048036038101906103599190612236565b610c46565b60405161036b9190611beb565b60405180910390f35b61038e60048036038101906103899190611cf7565b610cda565b005b60007f80ac58cd000000000000000000000000000000000000000000000000000000007bffffffffffffffffffffffffffffffffffffffffffffffffffffffff1916827bffffffffffffffffffffffffffffffffffffffffffffffffffffffff1916148061045b57507f5b5e139f000000000000000000000000000000000000000000000000000000007bffffffffffffffffffffffffffffffffffffffffffffffffffffffff1916827bffffffffffffffffffffffffffffffffffffffffffffffffffffffff1916145b8061046b575061046a82610d9a565b5b9050919050565b606060008054610481906122a5565b80601f01602080910402602001604051908101604052809291908181526020018280546104ad906122a5565b80156104fa5780601f106104cf576101008083540402835291602001916104fa565b820191906000526020600020905b8154815290600101906020018083116104dd57829003601f168201915b5050505050905090565b600061050f82610e04565b61054e576040517f08c379a000000000000000000000000000000000000000000000000000000000815260040161054590612349565b60405180910390fd5b6004600083815260200190815260200160002060009054906101000a900473ffffffffffffffffffffffffffffffffffffffff169050919050565b600061059482610721565b90508073ffffffffffffffffffffffffffffffffffffffff168373ffffffffffffffffffffffffffffffffffffffff161415610605576040517f08c379a00000000000000000000000000000000000000000000000000000000081526004016105fc906123db565b60405180910390fd5b8073ffffffffffffffffffffffffffffffffffffffff16610624610e70565b73ffffffffffffffffffffffffffffffffffffffff16148061065357506106528161064d610e70565b610c46565b5b610692576040517f08c379a00000000000000000000000000000000000000000000000000000000081526004016106899061246d565b60405180910390fd5b61069c8383610e78565b505050565b6106b26106ac610e70565b82610f31565b6106f1576040517f08c379a00000000000000000000000000000000000000000000000000000000081526004016106e8906124ff565b60405180910390fd5b6106fc83838361100f565b505050565b61071c8383836040518060200160405280600081525061099b565b505050565b6000806002600084815260200190815260200160002060009054906101000a900473ffffffffffffffffffffffffffffffffffffffff169050600073ffffffffffffffffffffffffffffffffffffffff168173ffffffffffffffffffffffffffffffffffffffff1614156107ca576040517f08c379a00000000000000000000000000000000000000000000000000000000081526004016107c190612591565b60405180910390fd5b80915050919050565b60008073ffffffffffffffffffffffffffffffffffffffff168273ffffffffffffffffffffffffffffffffffffffff161415610844576040517f08c379a000000000000000000000000000000000000000000000000000000000815260040161083b90612623565b60405180910390fd5b600360008373ffffffffffffffffffffffffffffffffffffffff1673ffffffffffffffffffffffffffffffffffffffff168152602001908152602001600020549050919050565b6000600860008473ffffffffffffffffffffffffffffffffffffffff1673ffffffffffffffffffffffffffffffffffffffff168152602001908152602001600020600083815260200190815260200160002060009054906101000a900460ff16905092915050565b606060018054610902906122a5565b80601f016020809104026020016040519081016040528092919081815260200182805461092e906122a5565b801561097b5780601f106109505761010080835404028352916020019161097b565b820191906000526020600020905b81548152906001019060200180831161095e57829003601f168201915b5050505050905090565b610997610990610e70565b8383611276565b5050565b6109ac6109a6610e70565b83610f31565b6109eb576040517f08c379a00000000000000000000000000000000000000000000000000000000081526004016109e2906124ff565b60405180910390fd5b6109f7848484846113e3565b50505050565b6060610a0882610e04565b610a47576040517f08c379a0000000000000000000000000000000000000000000000000000000008152600401610a3e906126b5565b60405180910390fd5b6000600660008481526020019081526020016000208054610a67906122a5565b80601f0160208091040260200160405190810160405280929190818152602001828054610a93906122a5565b8015610ae05780601f10610ab557610100808354040283529160200191610ae0565b820191906000526020600020905b815481529060010190602001808311610ac357829003601f168201915b505050505090506000610af161143f565b9050600081511415610b07578192505050610b4a565b600082511115610b3c578082604051602001610b24929190612711565b60405160208183030381529060405292505050610b4a565b610b4584611456565b925050505b919050565b6001600860003373ffffffffffffffffffffffffffffffffffffffff1673ffffffffffffffffffffffffffffffffffffffff168152602001908152602001600020600083815260200190815260200160002060006101000a81548160ff02191690836002811115610bc357610bc2611e96565b5b0217905550803373ffffffffffffffffffffffffffffffffffffffff167ffb54418a075541bd20e5e4e44bdbc01cea54f51e35d98a222395c2f0bce2e9f060405160405180910390a350565b6000610c1b60076114fd565b6000610c276007611513565b9050610c333382611521565b610c3d81846116fb565b80915050919050565b6000600560008473ffffffffffffffffffffffffffffffffffffffff1673ffffffffffffffffffffffffffffffffffffffff16815260200190815260200160002060008373ffffffffffffffffffffffffffffffffffffffff1673ffffffffffffffffffffffffffffffffffffffff16815260200190815260200160002060009054906101000a900460ff16905092915050565b6002600860003373ffffffffffffffffffffffffffffffffffffffff1673ffffffffffffffffffffffffffffffffffffffff168152602001908152602001600020600083815260200190815260200160002060006101000a81548160ff02191690836002811115610d4e57610d4d611e96565b5b0217905550803373ffffffffffffffffffffffffffffffffffffffff167fb70a0c4fedd186110c0530f3beac037475c92de145123c2102c24293962886a560405160405180910390a350565b60007f01ffc9a7000000000000000000000000000000000000000000000000000000007bffffffffffffffffffffffffffffffffffffffffffffffffffffffff1916827bffffffffffffffffffffffffffffffffffffffffffffffffffffffff1916149050919050565b60008073ffffffffffffffffffffffffffffffffffffffff166002600084815260200190815260200160002060009054906101000a900473ffffffffffffffffffffffffffffffffffffffff1673ffffffffffffffffffffffffffffffffffffffff1614159050919050565b600033905090565b816004600083815260200190815260200160002060006101000a81548173ffffffffffffffffffffffffffffffffffffffff021916908373ffffffffffffffffffffffffffffffffffffffff160217905550808273ffffffffffffffffffffffffffffffffffffffff16610eeb83610721565b73ffffffffffffffffffffffffffffffffffffffff167f8c5be1e5ebec7d5bd14f71427d1e84f3dd0314c0f7b2291e5b200ac8c7c3b92560405160405180910390a45050565b6000610f3c82610e04565b610f7b576040517f08c379a0000000000000000000000000000000000000000000000000000000008152600401610f72906127a7565b60405180910390fd5b6000610f8683610721565b90508073ffffffffffffffffffffffffffffffffffffffff168473ffffffffffffffffffffffffffffffffffffffff161480610ff557508373ffffffffffffffffffffffffffffffffffffffff16610fdd84610504565b73ffffffffffffffffffffffffffffffffffffffff16145b8061100657506110058185610c46565b5b91505092915050565b8273ffffffffffffffffffffffffffffffffffffffff1661102f82610721565b73ffffffffffffffffffffffffffffffffffffffff1614611085576040517f08c379a000000000000000000000000000000000000000000000000000000000815260040161107c90612839565b60405180910390fd5b600073ffffffffffffffffffffffffffffffffffffffff168273ffffffffffffffffffffffffffffffffffffffff1614156110f5576040517f08c379a00000000000000000000000000000000000000000000000000000000081526004016110ec906128cb565b60405180910390fd5b61110083838361176f565b61110b600082610e78565b6001600360008573ffffffffffffffffffffffffffffffffffffffff1673ffffffffffffffffffffffffffffffffffffffff168152602001908152602001600020600082825461115b919061291a565b925050819055506001600360008473ffffffffffffffffffffffffffffffffffffffff1673ffffffffffffffffffffffffffffffffffffffff16815260200190815260200160002060008282546111b2919061294e565b92505081905550816002600083815260200190815260200160002060006101000a81548173ffffffffffffffffffffffffffffffffffffffff021916908373ffffffffffffffffffffffffffffffffffffffff160217905550808273ffffffffffffffffffffffffffffffffffffffff168473ffffffffffffffffffffffffffffffffffffffff167fddf252ad1be2c89b69c2b068fc378daa952ba7f163c4a11628f55a4df523b3ef60405160405180910390a4611271838383611774565b505050565b8173ffffffffffffffffffffffffffffffffffffffff168373ffffffffffffffffffffffffffffffffffffffff1614156112e5576040517f08c379a00000000000000000000000000000000000000000000000000000000081526004016112dc906129f0565b60405180910390fd5b80600560008573ffffffffffffffffffffffffffffffffffffffff1673ffffffffffffffffffffffffffffffffffffffff16815260200190815260200160002060008473ffffffffffffffffffffffffffffffffffffffff1673ffffffffffffffffffffffffffffffffffffffff16815260200190815260200160002060006101000a81548160ff0219169083151502179055508173ffffffffffffffffffffffffffffffffffffffff168373ffffffffffffffffffffffffffffffffffffffff167f17307eab39ab6107e8899845ad3d59bd9653f200f220920489ca2b5937696c31836040516113d69190611beb565b60405180910390a3505050565b6113ee84848461100f565b6113fa84848484611779565b611439576040517f08c379a000000000000000000000000000000000000000000000000000000000815260040161143090612a82565b60405180910390fd5b50505050565b606060405180602001604052806000815250905090565b606061146182610e04565b6114a0576040517f08c379a000000000000000000000000000000000000000000000000000000000815260040161149790612b14565b60405180910390fd5b60006114aa61143f565b905060008151116114ca57604051806020016040528060008152506114f5565b806114d484611910565b6040516020016114e5929190612711565b6040516020818303038152906040525b915050919050565b6001816000016000828254019250508190555050565b600081600001549050919050565b600073ffffffffffffffffffffffffffffffffffffffff168273ffffffffffffffffffffffffffffffffffffffff161415611591576040517f08c379a000000000000000000000000000000000000000000000000000000000815260040161158890612b80565b60405180910390fd5b61159a81610e04565b156115da576040517f08c379a00000000000000000000000000000000000000000000000000000000081526004016115d190612bec565b60405180910390fd5b6115e66000838361176f565b6001600360008473ffffffffffffffffffffffffffffffffffffffff1673ffffffffffffffffffffffffffffffffffffffff1681526020019081526020016000206000828254611636919061294e565b92505081905550816002600083815260200190815260200160002060006101000a81548173ffffffffffffffffffffffffffffffffffffffff021916908373ffffffffffffffffffffffffffffffffffffffff160217905550808273ffffffffffffffffffffffffffffffffffffffff16600073ffffffffffffffffffffffffffffffffffffffff167fddf252ad1be2c89b69c2b068fc378daa952ba7f163c4a11628f55a4df523b3ef60405160405180910390a46116f760008383611774565b5050565b61170482610e04565b611743576040517f08c379a000000000000000000000000000000000000000000000000000000000815260040161173a90612c7e565b60405180910390fd5b8060066000848152602001908152602001600020908051906020019061176a929190611a94565b505050565b505050565b505050565b600061179a8473ffffffffffffffffffffffffffffffffffffffff16611a71565b15611903578373ffffffffffffffffffffffffffffffffffffffff1663150b7a026117c3610e70565b8786866040518563ffffffff1660e01b81526004016117e59493929190612cf3565b602060405180830381600087803b1580156117ff57600080fd5b505af192505050801561183057506040513d601f19601f8201168201806040525081019061182d9190612d54565b60015b6118b3573d8060008114611860576040519150601f19603f3d011682016040523d82523d6000602084013e611865565b606091505b506000815114156118ab576040517f08c379a00000000000000000000000000000000000000000000000000000000081526004016118a290612a82565b60405180910390fd5b805181602001fd5b63150b7a0260e01b7bffffffffffffffffffffffffffffffffffffffffffffffffffffffff1916817bffffffffffffffffffffffffffffffffffffffffffffffffffffffff191614915050611908565b600190505b949350505050565b60606000821415611958576040518060400160405280600181526020017f30000000000000000000000000000000000000000000000000000000000000008152509050611a6c565b600082905060005b6000821461198a57808061197390612d81565b915050600a826119839190612df9565b9150611960565b60008167ffffffffffffffff8111156119a6576119a5611f9e565b5b6040519080825280601f01601f1916602001820160405280156119d85781602001600182028036833780820191505090505b5090505b60008514611a65576001826119f1919061291a565b9150600a85611a009190612e2a565b6030611a0c919061294e565b60f81b818381518110611a2257611a21612e5b565b5b60200101907effffffffffffffffffffffffffffffffffffffffffffffffffffffffffffff1916908160001a905350600a85611a5e9190612df9565b94506119dc565b8093505050505b919050565b6000808273ffffffffffffffffffffffffffffffffffffffff163b119050919050565b828054611aa0906122a5565b90600052602060002090601f016020900481019282611ac25760008555611b09565b82601f10611adb57805160ff1916838001178555611b09565b82800160010185558215611b09579182015b82811115611b08578251825591602001919060010190611aed565b5b509050611b169190611b1a565b5090565b5b80821115611b33576000816000905550600101611b1b565b5090565b6000604051905090565b600080fd5b600080fd5b60007fffffffff0000000000000000000000000000000000000000000000000000000082169050919050565b611b8081611b4b565b8114611b8b57600080fd5b50565b600081359050611b9d81611b77565b92915050565b600060208284031215611bb957611bb8611b41565b5b6000611bc784828501611b8e565b91505092915050565b60008115159050919050565b611be581611bd0565b82525050565b6000602082019050611c006000830184611bdc565b92915050565b600081519050919050565b600082825260208201905092915050565b60005b83811015611c40578082015181840152602081019050611c25565b83811115611c4f576000848401525b50505050565b6000601f19601f8301169050919050565b6000611c7182611c06565b611c7b8185611c11565b9350611c8b818560208601611c22565b611c9481611c55565b840191505092915050565b60006020820190508181036000830152611cb98184611c66565b905092915050565b6000819050919050565b611cd481611cc1565b8114611cdf57600080fd5b50565b600081359050611cf181611ccb565b92915050565b600060208284031215611d0d57611d0c611b41565b5b6000611d1b84828501611ce2565b91505092915050565b600073ffffffffffffffffffffffffffffffffffffffff82169050919050565b6000611d4f82611d24565b9050919050565b611d5f81611d44565b82525050565b6000602082019050611d7a6000830184611d56565b92915050565b611d8981611d44565b8114611d9457600080fd5b50565b600081359050611da681611d80565b92915050565b60008060408385031215611dc357611dc2611b41565b5b6000611dd185828601611d97565b9250506020611de285828601611ce2565b9150509250929050565b600080600060608486031215611e0557611e04611b41565b5b6000611e1386828701611d97565b9350506020611e2486828701611d97565b9250506040611e3586828701611ce2565b9150509250925092565b600060208284031215611e5557611e54611b41565b5b6000611e6384828501611d97565b91505092915050565b611e7581611cc1565b82525050565b6000602082019050611e906000830184611e6c565b92915050565b7f4e487b7100000000000000000000000000000000000000000000000000000000600052602160045260246000fd5b60038110611ed657611ed5611e96565b5b50565b6000819050611ee782611ec5565b919050565b6000611ef782611ed9565b9050919050565b611f0781611eec565b82525050565b6000602082019050611f226000830184611efe565b92915050565b611f3181611bd0565b8114611f3c57600080fd5b50565b600081359050611f4e81611f28565b92915050565b60008060408385031215611f6b57611f6a611b41565b5b6000611f7985828601611d97565b9250506020611f8a85828601611f3f565b9150509250929050565b600080fd5b600080fd5b7f4e487b7100000000000000000000000000000000000000000000000000000000600052604160045260246000fd5b611fd682611c55565b810181811067ffffffffffffffff82111715611ff557611ff4611f9e565b5b80604052505050565b6000612008611b37565b90506120148282611fcd565b919050565b600067ffffffffffffffff82111561203457612033611f9e565b5b61203d82611c55565b9050602081019050919050565b82818337600083830152505050565b600061206c61206784612019565b611ffe565b90508281526020810184848401111561208857612087611f99565b5b61209384828561204a565b509392505050565b600082601f8301126120b0576120af611f94565b5b81356120c0848260208601612059565b91505092915050565b600080600080608085870312156120e3576120e2611b41565b5b60006120f187828801611d97565b945050602061210287828801611d97565b935050604061211387828801611ce2565b925050606085013567ffffffffffffffff81111561213457612133611b46565b5b6121408782880161209b565b91505092959194509250565b600067ffffffffffffffff82111561216757612166611f9e565b5b61217082611c55565b9050602081019050919050565b600061219061218b8461214c565b611ffe565b9050828152602081018484840111156121ac576121ab611f99565b5b6121b784828561204a565b509392505050565b600082601f8301126121d4576121d3611f94565b5b81356121e484826020860161217d565b91505092915050565b60006020828403121561220357612202611b41565b5b600082013567ffffffffffffffff81111561222157612220611b46565b5b61222d848285016121bf565b91505092915050565b6000806040838503121561224d5761224c611b41565b5b600061225b85828601611d97565b925050602061226c85828601611d97565b9150509250929050565b7f4e487b7100000000000000000000000000000000000000000000000000000000600052602260045260246000fd5b600060028204905060018216806122bd57607f821691505b602082108114156122d1576122d0612276565b5b50919050565b7f4552433732313a20617070726f76656420717565727920666f72206e6f6e657860008201527f697374656e7420746f6b656e0000000000000000000000000000000000000000602082015250565b6000612333602c83611c11565b915061233e826122d7565b604082019050919050565b6000602082019050818103600083015261236281612326565b9050919050565b7f4552433732313a20617070726f76616c20746f2063757272656e74206f776e6560008201527f7200000000000000000000000000000000000000000000000000000000000000602082015250565b60006123c5602183611c11565b91506123d082612369565b604082019050919050565b600060208201905081810360008301526123f4816123b8565b9050919050565b7f4552433732313a20617070726f76652063616c6c6572206973206e6f74206f7760008201527f6e6572206e6f7220617070726f76656420666f7220616c6c0000000000000000602082015250565b6000612457603883611c11565b9150612462826123fb565b604082019050919050565b600060208201905081810360008301526124868161244a565b9050919050565b7f4552433732313a207472616e736665722063616c6c6572206973206e6f74206f60008201527f776e6572206e6f7220617070726f766564000000000000000000000000000000602082015250565b60006124e9603183611c11565b91506124f48261248d565b604082019050919050565b60006020820190508181036000830152612518816124dc565b9050919050565b7f4552433732313a206f776e657220717565727920666f72206e6f6e657869737460008201527f656e7420746f6b656e0000000000000000000000000000000000000000000000602082015250565b600061257b602983611c11565b91506125868261251f565b604082019050919050565b600060208201905081810360008301526125aa8161256e565b9050919050565b7f4552433732313a2062616c616e636520717565727920666f7220746865207a6560008201527f726f206164647265737300000000000000000000000000000000000000000000602082015250565b600061260d602a83611c11565b9150612618826125b1565b604082019050919050565b6000602082019050818103600083015261263c81612600565b9050919050565b7f45524337323155524953746f726167653a2055524920717565727920666f722060008201527f6e6f6e6578697374656e7420746f6b656e000000000000000000000000000000602082015250565b600061269f603183611c11565b91506126aa82612643565b604082019050919050565b600060208201905081810360008301526126ce81612692565b9050919050565b600081905092915050565b60006126eb82611c06565b6126f581856126d5565b9350612705818560208601611c22565b80840191505092915050565b600061271d82856126e0565b915061272982846126e0565b91508190509392505050565b7f4552433732313a206f70657261746f7220717565727920666f72206e6f6e657860008201527f697374656e7420746f6b656e0000000000000000000000000000000000000000602082015250565b6000612791602c83611c11565b915061279c82612735565b604082019050919050565b600060208201905081810360008301526127c081612784565b9050919050565b7f4552433732313a207472616e736665722066726f6d20696e636f72726563742060008201527f6f776e6572000000000000000000000000000000000000000000000000000000602082015250565b6000612823602583611c11565b915061282e826127c7565b604082019050919050565b6000602082019050818103600083015261285281612816565b9050919050565b7f4552433732313a207472616e7366657220746f20746865207a65726f2061646460008201527f7265737300000000000000000000000000000000000000000000000000000000602082015250565b60006128b5602483611c11565b91506128c082612859565b604082019050919050565b600060208201905081810360008301526128e4816128a8565b9050919050565b7f4e487b7100000000000000000000000000000000000000000000000000000000600052601160045260246000fd5b600061292582611cc1565b915061293083611cc1565b925082821015612943576129426128eb565b5b828203905092915050565b600061295982611cc1565b915061296483611cc1565b9250827fffffffffffffffffffffffffffffffffffffffffffffffffffffffffffffffff03821115612999576129986128eb565b5b828201905092915050565b7f4552433732313a20617070726f766520746f2063616c6c657200000000000000600082015250565b60006129da601983611c11565b91506129e5826129a4565b602082019050919050565b60006020820190508181036000830152612a09816129cd565b9050919050565b7f4552433732313a207472616e7366657220746f206e6f6e20455243373231526560008201527f63656976657220696d706c656d656e7465720000000000000000000000000000602082015250565b6000612a6c603283611c11565b9150612a7782612a10565b604082019050919050565b60006020820190508181036000830152612a9b81612a5f565b9050919050565b7f4552433732314d657461646174613a2055524920717565727920666f72206e6f60008201527f6e6578697374656e7420746f6b656e0000000000000000000000000000000000602082015250565b6000612afe602f83611c11565b9150612b0982612aa2565b604082019050919050565b60006020820190508181036000830152612b2d81612af1565b9050919050565b7f4552433732313a206d696e7420746f20746865207a65726f2061646472657373600082015250565b6000612b6a602083611c11565b9150612b7582612b34565b602082019050919050565b60006020820190508181036000830152612b9981612b5d565b9050919050565b7f4552433732313a20746f6b656e20616c7265616479206d696e74656400000000600082015250565b6000612bd6601c83611c11565b9150612be182612ba0565b602082019050919050565b60006020820190508181036000830152612c0581612bc9565b9050919050565b7f45524337323155524953746f726167653a2055524920736574206f66206e6f6e60008201527f6578697374656e7420746f6b656e000000000000000000000000000000000000602082015250565b6000612c68602e83611c11565b9150612c7382612c0c565b604082019050919050565b60006020820190508181036000830152612c9781612c5b565b9050919050565b600081519050919050565b600082825260208201905092915050565b6000612cc582612c9e565b612ccf8185612ca9565b9350612cdf818560208601611c22565b612ce881611c55565b840191505092915050565b6000608082019050612d086000830187611d56565b612d156020830186611d56565b612d226040830185611e6c565b8181036060830152612d348184612cba565b905095945050505050565b600081519050612d4e81611b77565b92915050565b600060208284031215612d6a57612d69611b41565b5b6000612d7884828501612d3f565b91505092915050565b6000612d8c82611cc1565b91507fffffffffffffffffffffffffffffffffffffffffffffffffffffffffffffffff821415612dbf57612dbe6128eb565b5b600182019050919050565b7f4e487b7100000000000000000000000000000000000000000000000000000000600052601260045260246000fd5b6000612e0482611cc1565b9150612e0f83611cc1565b925082612e1f57612e1e612dca565b5b828204905092915050565b6000612e3582611cc1565b9150612e4083611cc1565b925082612e5057612e4f612dca565b5b828206905092915050565b7f4e487b7100000000000000000000000000000000000000000000000000000000600052603260045260246000fdfea2646970667358221220102cc08d97e131205d201a6a93925318faa107e55f1317f3559aa3a9aeff0eb664736f6c63430008090033",
  "linkReferences": {},
  "deployedLinkReferences": {}
}